:100000000C941C070C9463070C9463070C9463070F
:100010000C9463070C9463070C9463070C946307B8
:100020000C9463070C9463070C943F220C941223E6
:100030000C944D190C9463070C9463070C9463079C
:100040000C9463070C9463070C9463070C94630788
:100050000C9463070C94AE190C9463070C9463071B
:100060000C9463070C9463070C9463070C94630768
:100070000C9463070C9463070C9463070C94630758
:100080000C9463070C9463070C9463070C94630748
:100090000C9463070C9463070C9463070C94630738
:1000A0000C9463070C9463070C94630729001E00EB
:1000B0001F0020002100220023002400250026002C
:1000C00027002D002E0000002A004C00540055008F
:1000D00056002B00000014001A000800150017003D
:1000E0001C0018000C00120013002F00300031001B
:1000F0005F00600061005700390000000400160036
:10010000070009000A000B000D000E000F0033006D
:100110003400000028005C005D005E004600E10045
:1001200000001D001B000600190005001100100052
:100130003600370038000000E500520059005A0030
:100140005B00A900E000E2000000E3000000000006
:100150002C000000000000000151000000005000D1
:1001600051004F0062006300AA0035023A003B00D4
:100170003C003D003E003F00400041004200430083
:1001800044004500000001000100010001000100E1
:100190003500000001000100010001000100010024
:1001A0000100010001000100010001000100010047
:1001B0000100010001000100000001000100010038
:1001C0000100010001000100010001000100010027
:1001D0000000010001000100010001000100000019
:1001E0000100010001000100010001000100010007
:1001F00001000100000001000100010001000100F8
:1002000001000100010000000100000000000100E9
:1002100000000000000001000000000001000100DB
:1002200001000100010001000100010001000100C6
:1002300001000100010001000100010001000100B6
:1002400001000000010001000100010001000100A7
:100250000000010001000100010001000100010097
:100260000100010001000100010001000100010086
:100270000100010001000000010001000100010077
:100280000100010001000100010001000100000067
:100290000100010001000100010001000000010057
:1002A0000100010001000100010001000100010046
:1002B0000100000001000100010001000100010037
:1002C000010001000000010000000000010000002A
:1002D000000000000100000000000100010001001A
:1002E0000100010001000100010001000100010006
:1002F00001000100010001000100010001000100F6
:1003000000000100010001000100010001000000E7
:1003100001000100010001000100010001000100D5
:1003200001000100010001000100010001000100C5
:1003300001000100000001000100010001000100B6
:1003400001000100010001000100010000000100A6
:100350000100010001000100010000000100010096
:100360000100010001000100010001000100010085
:100370000000010001000100010001000100010076
:10038000010000000100000000000100000000006A
:100390000000010000000000010001000100010058
:1003A0000100010001000100010001000100010045
:1003B0000100010001000100010001000100000036
:1003C0000100010001000100010001000000010026
:1003D0000100010001000100010001000100010015
:1003E0000100010001000100010001000100010005
:1003F00001000000010001000100010001000100F6
:1004000001000100010001000100000001000100E5
:1004100001000100010001000000010001000100D5
:1004200001000100010001000100010001000000C5
:1004300001000100010001000100010001000100B4
:1004400000000100000000000100000000000000AA
:100450000100000000000100010001000100010096
:100460000100010001000100010001000100010084
:100470000100010001000100010001000000010075
:100480000100010001000100010000000100010065
:100490000100010001000100010001000100010054
:1004A0000100010001000100010001000100010044
:1004B0000000010001000100010001000100010035
:1004C0000100010001000100000001000100010025
:1004D0000100010001000000010001000100010015
:1004E0000100010001000100010001000000010005
:1004F00001000100010001000100010001000000F5
:1005000001000000000001000000000000000100E8
:1005100000000000010001000100010001000100D5
:1005200001000100010001000100010001000100C3
:1005300001000100010001000100000001000100B4
:1005400001000100010001000000010001000100A4
:100550000100010001000100010001000100010093
:100560000100010001000100010001000100000084
:100570000100010001000100010001000100010073
:100580000100010001000000010001000100010064
:100590000100010000000100010001000100010054
:1005A0000100010001000100010000000100010044
:1005B0000100010001000100010001000000010034
:1005C0000000000001000000000000000100000029
:1005D0000000010001000100010001000100010014
:1005E0000100010001000100010001000100010003
:1005F00001000100010001000000010001000100F4
:1006000001000100010000000100010001000100E3
:1006100001000100010001000100010001000100D2
:1006200001000100010001000100010000000100C3
:1006300001000100010001000100010001000100B2
:1006400001000100000001000100010001000100A3
:100650000100000001000100010001000100010093
:100660000100010001000100000001000100010083
:100670000100010001000100010000000100000074
:100680000000010000000000000001000000000068
:100690000100010001000100010001000100010052
:1006A0000100010001000100010001000100010042
:1006B0000100010001000000010001000100010033
:1006C0000100010000000100010001000100010023
:1006D0000100010001000100010001000100010012
:1006E0000100010001000100010000000100010003
:1006F00001000100010001000100010001000100F2
:1007000001000000010001000100010001000100E2
:1007100000000100010001000100010001000100D2
:1007200001000100010000000100010001000100C2
:1007300001000100010001000000010000000000B4
:1007400001000000000000000100000000000100A6
:100750000100010001000100010001000100010091
:100760000100010001000100010001000100010081
:100770000100010000000100010001000100010072
:100780000100000001000100010001000100010062
:100790000100010001000100010001000100010051
:1007A0000100010001000100000001000100010042
:1007B0000100010001000100010001000100010031
:1007C0000000010001000100010001000100000023
:1007D0000100010001000100010001000100010011
:1007E0000100010000000100010001000100010002
:1007F00001000100010000000100000000000100F4
:1008000000000000000001000000000001000100E5
:1008100001000100010001000100010001000100D0
:1008200001000100010001000100010001000100C0
:1008300001000000010001000100010001000100B1
:1008400000000100010001000100010001000100A1
:100850000100010001000100010001000100010090
:100860000100010001000000010001000100010081
:100870000100010001000100010001000100000071
:100880000100010001000100010001000000010061
:100890000100010001000100010001000100010050
:1008A0000100000001000100010001000100010041
:1008B0000100010000000100000000000100000034
:1008C0000000000001000000000001000100010024
:1008D0000100010001000100010001000100010010
:1008E0000100010001000100010001000100010000
:1008F00000000100010001000100010001000000F2
:1009000001000100010001000100010001000100DF
:1009100001000100010001000100010001000100CF
:1009200001000100000001000100010001000100C0
:1009300001000100010001000100010000000100B0
:1009400001000100010001000100000001000100A0
:10095000010001000100010001000100010001008F
:100960000000010001000100010001000100010080
:100970000100000001000000000001000000000074
:100980000000010000000000010001000100010062
:10099000010001000100010001000100010001004F
:1009A0000100010001000100010001000100000040
:1009B0000100010001000100010001000000010030
:1009C000010001000100010001000100010001001F
:1009D000010001000100010001000100010001000F
:1009E0000100000001000100010001000100010000
:1009F00001000100010001000100000001000100F0
:100A000001000100010001000000010001000100DF
:100A100001000100010001000100010001000000CF
:100A200001000100010001000100010001000100BE
:100A300000000100000000000100000000000000B4
:100A400001000000000001000100010001000100A0
:100A5000010001000100010001000100010001008E
:100A6000010001000100010001000100000001007F
:100A7000010001000100010001000000010001006F
:100A8000010001000100010001000100010001005E
:100A9000010001000100010001000100010001004E
:100AA000000001000100010001000100010001003F
:100AB000010001000100010000000100010001002F
:100AC000010001000100000001000100010001001F
:100AD000010001000100010001000100000001000F
:100AE00001000100010001000100010001000000FF
:100AF00001000000000001000000000000000100F3
:100B000000000000010001000100010001000100DF
:100B100001000100010001000100010001000100CD
:100B200001000100010001000100000001000100BE
:100B300001000100010001000000010001000100AE
:100B4000010001000100010001000100010001009D
:100B5000010001000100010001000100010000008E
:100B6000010001000100010001000100010001007D
:100B7000010001000100000001000100010001006E
:100B8000010001000000010001000100010001005E
:100B9000010001000100010001000000010001004E
:100BA000010001000100010001000100000001003E
:100BB0000000000001000000000000000100000033
:100BC000000001000100010001000100010001001E
:100BD000010001000100010001000100010001000D
:100BE00001000100010001000000010001000100FE
:100BF00001000100010000000100010001000100EE
:100C000001000100010001000100010001000100DC
:100C100001000100010001000100010000000100CD
:100C200001000100010001000100010001000100BC
:100C300001000100000001000100010001000100AD
:100C4000010000000100010001000100010001009D
:100C5000010001000100010000000100010001008D
:100C6000010001000100010001000000010000007E
:100C70000000010000000000000001000000000072
:100C800001000100010001000100010012036B00DE
:100C90006500790062006F0061007200640000006E
:100CA000160371006D006B006200750069006C0036
:100CB00064006500720000000403090409026D006D
:100CC000040100A0FA090400000103010100092148
:100CD000110100012240000705810308000A0904F0
:100CE00001000103010200092111010001224D0050
:100CF0000705820308000A0904020001030000003E
:100D00000921110100012236000705830308000AAA
:100D10000904030001030000000921110100012260
:100D200039000705840320000112011001000000B2
:100D300008EDFE606001000102000105010906A145
:100D400001050719E029E7150025019508750181BE
:100D5000020508190129059505750191029501758E
:100D60000391010507190029F71500250195F8756C
:100D7000018102C005010980A1018502160100263A
:100D800003001A81002A8300751095018100C005B7
:100D90000C0901A1018503160100269C021A01001D
:100DA0002A9C02751095018100C005010902A1016C
:100DB0000901A1000509190129051500250195055D
:100DC0007501810295017503810105010930093121
:100DD0001581257F95027508810609381581257FC3
:100DE000950175088106050C0A38021581257F9545
:100DF0000175088106C0C005010906A10105071992
:100E0000E029E71500250195087501810295017516
:100E100008810105081901290595057501910295BB
:100E200001750391010507190029FF150026FF0030
:100E3000950675088100C00011241FBECFEFDAE0CF
:100E4000DEBFCDBF04B603FE27C080917A02909129
:100E50007B02A0917C02B0917D028730904BA7402D
:100E6000B04BD1F410927A0210927B0210927C0265
:100E700010927D0214BE84B7877F84BF0FB6F894AA
:100E8000A895809160008861809360001092600056
:100E90000FBEE0E0F8E3099511E0A0E0B1E0EEEF6D
:100EA000FCE402C005900D92A034B107D9F722E00E
:100EB000A0E4B1E001C01D92AA37B207E1F70E9499
:100EC000951F0C9451260C94000090E080E008954A
:100ED0000895089581E00895089581E008950C949F
:100EE0006A070E948E112FEF84E39CE0215080401E
:100EF0009040E1F700C000000C94D119EF92FF92EE
:100F00000F931F93CF93DF938C01FC01E080F1805E
:100F100080919801811140C082818823C1F1C7016D
:100F20000E941317C82F682FC7010E94BC16B70173
:100F30008C2F0E94B608EC01B8010E946F0788232D
:100F400009F44BC0B801CE010E94BF0A882309F4FE
:100F500044C0C531F0E7DF0720F5C23080E7D8078D
:100F600008F04DC0C115E0E7DE0791F1C130D04770
:100F7000E1F181E08093420180934301C801DF9158
:100F8000CF911F910F91FF90EF900C946D07C701C7
:100F90000E94EA16C82FCBCFC7010E941317B701D2
:100FA000C8CFCC3380E7D80709F49BC0CD33D047F6
:100FB00001F7F8018281882309F4BAC01092430135
:100FC0000E947D19909341018093400180E296C078
:100FD000F801828181110E94710780E0DF91CF9139
:100FE0001F910F91FF90EF900895F801828188235F
:100FF000A1F380913A02816080933A02EECFF8012A
:101000008281882309F4BACF0E94CE18811102C0D0
:101010000E94B4180E94EB1890E090936C028093A9
:101020006B02FE01E350F04780916B028160E23178
:10103000F10538F4ED5AF94D0C94012680916B02BC
:10104000826080936B0280916B020E94EF180E9475
:101050008E11C3CF80916B028460F3CF80916B02BD
:101060008860EFCF80916B028061EBCF80916B0243
:101070008062E7CF80916B028064E3CF80916B0246
:101080008068DFCF80916B028C60DBCF80916B0238
:101090008E7FD7CF80916B028D7FD3CF80916B02F3
:1010A0008B7FCFCF80916B02877FCBCF80916B02FC
:1010B0008F7EC7CF80916B028F7DC3CF80916B02F3
:1010C0008F7BBFCF80916B028F77BBCF80916B02FC
:1010D000837FB7CF90916B02892F97FB87F9805858
:1010E000B0CFF8018281882361F0109242010E9402
:1010F0007D19909341018093400182E00E94F30E9C
:101100006CCF8091420181110FC08091400190917C
:1011100041010E948919883C910530F486E20E94C1
:10112000C80D86E20E94A40E82E00E94FA0E55CFFE
:101130008091430181110FC0809140019091410144
:101140000E948919883C910530F487E20E94C80DFD
:1011500087E20E94A40E80E2E8CF0C940E0B0C9460
:10116000100B0C946C070C94B1080895972F70E045
:1011700023E1929F600D711D1124FB019FE5899F62
:10118000E00DF11D1124EE0FFF1FE455FF4F859177
:1011900094910895FC01EE0FFF1FE457F34F8591E2
:1011A000949108950E94B6080E94430A9C018115FB
:1011B00040E4940708F097C0211580E3380708F051
:1011C000FAC0203E310508F074C0203C310508F01B
:1011D000E5C0283A310588F4253A310508F0E2C027
:1011E0002130310509F477C0C9010497813A91058E
:1011F00008F471C030E020E06EC0C901885A91093E
:101200004597C0F7283A310509F4FEC0293A31055F
:1012100009F4FDC02A3A310509F4FCC02B3A310526
:1012200009F4FBC02C3A310509F4FAC02B3B310517
:1012300009F4F9C02C3B310509F4F8C02D3A310509
:1012400009F4F7C0203B310509F4F6C02E3A310508
:1012500009F4F5C02F3A310509F4F4C0213B3105FA
:1012600009F4F3C0223B310509F4F2C0233B3105F8
:1012700009F4F1C0243B310509F4F0C0253B3105E8
:1012800009F4EFC0263B310509F4EEC0273B3105D8
:1012900009F4EDC0283B310509F4ECC0293B3105C8
:1012A00009F4EBC02A3B310509F4EAC020E034E43C
:1012B00012C0211590E2390780F42F3F310509F063
:1012C00050F4283E310538F0C901805F910930653E
:1012D000409708F08FCFC9010895C9019F700E94FF
:1012E000CA089C01F8CF8115944508F041C021152A
:1012F00083E5380708F06AC0211592E5390738F50B
:10130000211541E5340708F05CC0211580E5380758
:1013100008F454C0C90134E0969587953A95E1F7F1
:101320008370422F46954695437090E2499FA001F5
:101330001124582B822F837021E030E002C0220F4D
:10134000331F8A95E2F7242B352B3C68C4CFC901A3
:101350008370992741E050E002C0440F551F8A95E1
:10136000E2F72695269580E2289F90011124EBCF85
:10137000211596E5390748F4922F88272115354520
:10138000C8F59C01246F306AA6CFC90190563F7002
:101390008115904108F02ECF30629DCFC901805C4D
:1013A00091099DCF253A310549F1263A310549F594
:1013B00022E830E490CF3327306C8DCF3F70306A15
:1013C0008ACF322F2227216F306A85CFC9018370DF
:1013D000992741E050E002C0440F551F8A95E2F77B
:1013E0002695269580E2289F90011124242B352BE9
:1013F0003A6871CF88279F719C01CECF21E830E4F5
:101400006ACF23E830E467CF22EE34E464CF29EEDC
:1014100034E461CF2AEE34E45ECF25EB34E45BCFD5
:1014200026EB34E458CF23EB34E455CF24EB34E4FB
:1014300052CF27EB34E44FCF2CEC34E44CCF2DECDF
:1014400034E449CF23E835E446CF2AE835E443CFF6
:1014500022E935E440CF24E935E43DCF21E236E40A
:101460003ACF23E236E437CF24E236E434CF25E224
:1014700036E431CF26E236E42ECF27E236E42BCF16
:101480002AE236E428CF803E910581F1C8F4813309
:10149000910509F462C048F48932910509F456C0F7
:1014A0008A32910509F460C0089589339105B9F035
:1014B00082389105A1F08533910509F440C0089563
:1014C000863E910561F138F4823E9105B1F0833E8C
:1014D0009105E1F00895873E910551F1089520911D
:1014E0006B022370D9F080EE90E0089520916B029A
:1014F00020FF14C089E390E0089520916B0222FF41
:101500000DC024FD09C083EE90E0089520916B0288
:1015100022FD31C024FF02C090E080E008952091B8
:101520006B0223FFFBCF24FDF7CF87EE90E00895F9
:1015300020916B0223FFEECF86EE90E0089520917C
:101540006B0225FFEBCF89E290E0089520916B02BA
:1015500025FFE4CF85E390E0089520916B0226FFFC
:10156000DDCF8AE290E0089520916B0226FFD6CF6E
:1015700081E390E0089582EE90E0089508950F933E
:101580001F93CF938C01FB018281811106C0C1E0C2
:101590008C2FCF911F910F910895C0915101C111CE
:1015A00025C00531104799F70E94BE0A81E080935B
:1015B00051010E947D199093500180934F01109228
:1015C0004401109246011092450110924801109278
:1015D000470110924A011092490110924C01109259
:1015E0004B0110924E0110924D01D2CF80914F01CC
:1015F000909150010E948919883C910540F6809194
:101600004401E82FF0E0EE0FFF1FEB5BFE4F11836C
:1016100000838F5F80934401C0E0BACF0C946807C9
:101620000C94690785B7806885BF85B7806885BFDA
:10163000A6E2B1E061E070E08D91E82FE295EF70F5
:10164000F0E041A18F709B0101C0220F8A95EAF75B
:10165000922F9095942391A382A1822B82A381E063
:10166000AB32B80749F7A3E1B1E061E070E08D91DA
:10167000E82FE295EF70F0E041A18F709B0101C06F
:10168000220F8A95EAF7922F9095942391A382A135
:10169000822B82A381E0A632B80749F7E6E6F1E0A3
:1016A000A2E5B1E08AE791E01192119211921192B4
:1016B0001D921D921D921D928E179F07A9F70C94E3
:1016C000AD082F923F924F925F926F927F928F92CE
:1016D0009F92AF92BF92CF92DF92EF92FF920F93C1
:1016E0001F93CF93DF93CDB7DEB72B970FB6F89448
:1016F000DEBF0FBECDBF82E5282E81E0382E06E288
:1017000011E01E830D8338862F82C12CD12C7601E7
:10171000C394AF81B8858D909D90AD90BD90B887F2
:10172000AF83FD011292129212921292FB87EA8706
:10173000AD81BE818D91BE83AD83E82FE295EF70C0
:10174000F0E091A18F7001E010E002C0000F111FC6
:101750008A95E2F71A830983802F892B81A382A1BE
:1017600000950987802382A310EA1A95F1F723E1F7
:1017700031E03C832B8390E080E0AB81BC817D90A5
:10178000BC83AB83272D22952F7030E0D901909632
:101790005C90AA85BB854D915D916D917C91272DC3
:1017A0002F7001E010E002C0000F111F2A95E2F730
:1017B0009801252109F07AC097018601082E04C0FE
:1017C000000F111F221F331F0A94D2F7280139017D
:1017D0004429552966297729AA85BB854D935D93B0
:1017E0006D937C93139701968331910531F681A116
:1017F0001985182311A382A1B9818B2B82A3EA85B5
:10180000FB8580819181A281B38188169906AA0601
:10181000BB0649F0F1E0F0937A010E947D199093A4
:101820007C0180937B010F8118850656114009F0D9
:1018300070CF80917A018823E9F080917B019091AB
:101840007C010E9489190697A8F026E631E0F10193
:1018500081919191A191B1911F01F901819391938E
:10186000A193B1939F01F6E62F16F1E03F0679F7B9
:1018700010927A010E94AF0881E02B960FB6F8947F
:10188000DEBF0FBECDBFDF91CF911F910F91FF90B3
:10189000EF90DF90CF90BF90AF909F908F907F9010
:1018A0006F905F904F903F902F900895412C512C56
:1018B00032018ECFCF93DF9300D000D0CDB7DEB70B
:1018C00094E0899FF0011124EA59FE4F80819181B3
:1018D000A281B381BC01CD010F900F900F900F90AA
:1018E000DF91CF91089508959093820180938101B3
:1018F0000895E0918101F0918201309721F00190EB
:10190000F081E02D099480E00895E0918101F0914B
:101910008201309721F00280F381E02D099408952F
:10192000E0918101F0918201309721F00480F581EE
:10193000E02D0994089520917F01309180012817AE
:10194000390771F09093800180937F01E0918101CC
:10195000F0918201309721F00680F781E02D099403
:10196000089520917D0130917E012817390771F08B
:1019700090937E0180937D01E0918101F09182013D
:10198000309721F00084F185E02D099408950895A1
:101990000C94C70C0E9474190E94120B0C943D1AEF
:1019A0004F925F926F927F929F92AF92BF92CF922F
:1019B000DF92EF92FF920F931F93CF93DF9300D0AC
:1019C00000D00F92CDB7DEB70E94610B24E8A22EA3
:1019D00021E0B22E10E000E0902E802F0E945A0CE1
:1019E0006B017C01F50141905190619071905F0114
:1019F0004C145D046E047F0409F475C080913A02B2
:101A000081FD0E94730C90E080E04C245D246E24E4
:101A10007F24B301A201082E04C0769567955795DF
:101A200047950A94D2F740FF59C089839A82412C86
:101A3000512C3201439404C0440C551C661C771C85
:101A40008A95D2F7C420D520E620F72081E0CD2862
:101A5000CE28CF2809F480E08B830E947D19816015
:101A6000782F9D838C8349815A816B818D810E945F
:101A70009F0D000F111F000F111FF801EC57FE4FB3
:101A800080819181A281B38184259525A625B725E2
:101A900080839183A283B3830E94EA1C0E94790C05
:101AA000909183018917B1F10E94790C8093830191
:101AB0000F900F900F900F900F90DF91CF911F918B
:101AC0000F91FF90EF90DF90CF90BF90AF909F90DD
:101AD0007F906F905F904F900C94B3080196833184
:101AE000910509F096CF0F5F1F4F0530110509F0E2
:101AF00073CF8FEF89838A831B820E947D19816057
:101B0000782F9D838C8349815A816B818D810E94BE
:101B10009F0DC2CF0F900F900F900F900F90DF91FD
:101B2000CF911F910F91FF90EF90DF90CF90BF90DA
:101B3000AF909F907F906F905F904F900895CF935C
:101B4000DF93CDB7DEB72B970FB6F894DEBF0FBE8D
:101B5000CDBF4F83588769877A878B871E8285E040
:101B6000FE013796DE01119601900D928A95E1F7FC
:101B700049815A816B817C818D819E812B960FB624
:101B8000F894DEBF0FBECDBFDF91CF910C94161439
:101B9000882309F4D8C0823871F40E94790C81FD41
:101BA000D2C089E30E94BB170E94851889E30E9476
:101BB000F8170C948518833859F40E94790C80FD2D
:101BC000C2C083E50E94BB170E94851883E5EFCF52
:101BD000843859F40E94790C82FDB5C087E40E94D4
:101BE000BB170E94851887E4E2CF9CEF980F913ACB
:101BF00018F40E94BB17DDCF90E2980F983050F494
:101C0000877091E001C0990F8A95EAF7892F0E94A9
:101C10003C18CFCF9BE5980F933070F4853A31F0A4
:101C2000863A39F083E890E00C949B0C81E890E0D0
:101C3000FBCF82E890E0F8CF98E5980F953108F057
:101C400082C0883A09F440C0893A09F440C08A3A0F
:101C500009F440C08B3A09F440C08C3A09F440C002
:101C60008B3B09F440C08C3B09F440C08D3A09F429
:101C700040C0803B09F440C08E3A09F440C08F3A1E
:101C800009F440C0813B09F440C0823B09F440C0E4
:101C9000833B09F440C0843B09F440C0853B09F410
:101CA00040C0863B09F440C0873B09F440C0883BF4
:101CB00009F440C0893B09F440C08A3B09F440C0A4
:101CC00090E080E00C94B10C82EE90E0FBCF89EEC6
:101CD00090E0F8CF8AEE90E0F5CF85EB90E0F2CF80
:101CE00086EB90E0EFCF83EB90E0ECCF84EB90E0DD
:101CF000E9CF87EB90E0E6CF8CEC90E0E3CF8DEC82
:101D000090E0E0CF83E891E0DDCF8AE891E0DACFA0
:101D100082E991E0D7CF84E991E0D4CF81E292E0EB
:101D2000D1CF83E292E0CECF84E292E0CBCF85E2C6
:101D300092E0C8CF86E292E0C5CF87E292E0C2CFC0
:101D40008AE292E0BFCF0895882309F44BC082381D
:101D500071F40E94790C81FF45C089E30E94BB1792
:101D60000E94851889E30E94F8170C94851883381F
:101D700059F40E94790C80FF35C083E50E94BB179F
:101D80000E94851883E5EFCF843859F40E94790CBE
:101D900082FF28C087E40E94BB170E94851887E451
:101DA000E2CF9CEF980F913AF0F290E2980F9830C2
:101DB00050F4877091E001C0990F8A95EAF7892F56
:101DC0000E944218D2CF9BE5980F933020F490E008
:101DD00080E00C949B0C885A853120F490E080E0E0
:101DE0000C94B10C0895882321F00E943C180C94A7
:101DF00085180895882321F00E9442180C948518B4
:101E000008958F929F92AF92BF92DF92EF92FF92CE
:101E10000F931F93CF93DF9300D000D00F92CDB7D5
:101E2000DEB77C016D837983FC01058102950F701B
:101E3000128111110E945B180E94B417D82E8823BA
:101E400071F01123A1F08D81805E883080F082E0F6
:101E50000E949E170E94B41791E0D82ED926E981DE
:101E6000E295EF70F0E0EB59F94D0C940126D12C7E
:101E7000F6CF09810F70F981F07F11F00295007F94
:101E80001123B1F0002361F08D81805E883018F05D
:101E90002D81211109C0802F0E943C180E948518B5
:101EA0008D810E94C80D15C0802F0E944D18F6CF5D
:101EB0008D810E94A40E002361F08D81805E8830A8
:101EC00018F03D81311129C0802F0E9442180E94D4
:101ED0008518DD2009F4D3C10E94911780FDCFC180
:101EE000F70112820E948B170E94D415C7010E942D
:101EF00050110E948B170F900F900F900F900F9022
:101F0000DF91CF911F910F91FF90EF90DF90BF90E5
:101F1000AF909F908F900C94F615802F0E945318CD
:101F2000D6CF49814F70B42E5981507F503219F06D
:101F3000B29480EFB8228D81882369F0813029F135
:101F4000112369F1002359F0F701858180FFA8CFA3
:101F50008F70858304C0112361F0011104C08B2DA3
:101F60000E94F30EB6CF8B2D0130D1F70E946F186F
:101F7000B0CF011106C00E9472188B2D0E94FA0E7C
:101F8000A8CF013009F4A5CFF6CF112321F00630F8
:101F900008F09FCFE4CF053008F09BCFEECF0023B1
:101FA00061F38D810E94A40E94CF898186958695D8
:101FB000837069F0813009F08CCF8D8199819370A5
:101FC000111102C090E080E00E94B10C82CF8D819F
:101FD00099819370111102C090E080E00E949B0CE7
:101FE00078CF8D81112329F00E94F81B0E94DF1CFD
:101FF00070CF0E94601CFACF8981837009F05FC0A6
:10200000111167CF2D81229526952770220F220F5F
:102010008D818F7090E0B0E0A0E04C015D01022E58
:1020200004C0880C991CAA1CBB1C0A94D2F7FD8121
:1020300060E070E0CB01F4FF0FC06FE070E080E083
:1020400090E004C0660F771F881F991F2A95D2F76A
:102050006095709580959095298126952695237099
:102060002D832230B1F0233019F19B01AC012829D6
:1020700039294A295B2929833A834B835C833D8133
:1020800069817A818B819C813130B1F00E94611528
:1020900020CF9B01AC01282939294A295B292983B2
:1020A0003A834B835C83CA01B9010E948B1511CF1F
:1020B0000E946115C501B4010E9437150ACF8695AB
:1020C000112311F089818170882309F402CF2D81B9
:1020D000229526952770220F220F8D818F7090E018
:1020E000B0E0A0E04C015D01022E04C0880C991CF8
:1020F000AA1CBB1C0A94D2F73D8160E070E0CB01C2
:1021000034FF0FC06FE070E080E090E004C0660F25
:10211000771F881F991F2A95D2F760957095809533
:10212000909549814695469543704D834230B1F074
:10213000433019F19B01AC01282939294A295B292F
:1021400029833A834B835C833D8169817A818B81CA
:102150009C813130B1F00E946716BBCE9B01AC016F
:10216000282939294A295B2929833A834B835C83AF
:10217000CA01B9010E949116ACCE0E946716C50132
:10218000B4010E943D16A5CE3D81323F09F447C0FF
:1021900080F4303F79F1313FD9F1832F805E803177
:1021A000D0F0112309F456C001117ACE89818F71C4
:1021B00033C04D81433FD1F1443F99F7112309F4D6
:1021C0003FC089818F7189830E94D41563E0898122
:1021D0000E9495177ECE5D815F705D8389818F71CE
:1021E000112321F00E94D4158D81BACE0E94F615DC
:1021F0008D81C4CE112341F0053008F06ACE89816B
:102200008F710E941B1665CE063008F062CEF7CFA4
:1022100089818F71112339F00E94D4155ACE89819A
:102220008F711123C9F30E94F61553CE112329F0A3
:1022300089818F710E94BF154CCE0E94B51549CE81
:1022400081E00E949E17023008F443CE82E00E9493
:102250009E173FCE0111A5CE89818F71E4CF4981B0
:102260004F706D81C7010E9465070E94B01431CE86
:1022700049814F706D81C7010E94B5082ACE0F9029
:102280000F900F900F900F90DF91CF911F910F91B2
:10229000FF90EF90DF90BF90AF909F908F90089548
:1022A0000F931F93CF93DF93EC018B819C81892B3C
:1022B00029F08881998189238F3F29F4DF91CF917B
:1022C0001F910F910895CE010E947E078823B1F3DC
:1022D000688179818A810E9461178C010E94BB16F6
:1022E0000E942C15B801CE01DF91CF911F910F9163
:1022F0000C94010F0E945B180E946C180E942E180B
:102300000E9485180E94D01D0E94DF1C90E080E092
:102310000E949B0C90E080E00C94B10C0E944A1843
:102320000C947A110E945517282F892F82958F704F
:10233000903C80F48A30B0F4843020F4823090F401
:1023400080E008958630E1F781E0203E88F0213F6B
:10235000B9F70EC08C3011F08F3091F793FB8827BE
:1023600080F9089581E0203F39F018F4203E40F7CD
:102370000895243F29F7FCCF0895CF93DF9300D031
:1023800000D00F92CDB7DEB70F900F900F900F9047
:102390000F90DF91CF910895CF93DF9300D000D0BD
:1023A00000D0CDB7DEB726960FB6F894DEBF0FBECD
:1023B000CDBFDF91CF9108951F93CF93DF93E0912D
:1023C000990116E080919A018E1304C0DF91CF919C
:1023D0001F910895CE2FD0E01E9FF0011124E556E5
:1023E000FE4F4081518162817381848195810E9479
:1023F000CC11FE013196E770E5CF4091CB015091B1
:10240000CC016091CD017091CE018091CF0190916E
:10241000D0010C94CC111F93CF93DF938091D00106
:10242000807FC1F48091CD018823A1F08091990132
:10243000C0919A016091CB017091CC014091CE0185
:102440005091CF01D62FD723DA01A095B09516E091
:10245000C81304C0DF91CF911F91089590E04115FA
:10246000510511F0DF3F31F401968770F1CF2A0F4B
:102470003B1F17C0189FF001199FF00D1124E5565E
:10248000FE4F21812713F0CF20812613EDCF22812B
:102490002111EACF238134812417350740F3241B0F
:1024A000350B283C310500F72091D0012F702061B9
:1024B0002093D00126E0289FF001299FF00D1124E0
:1024C000E056FE4F80818F70806180838BEC91E0BD
:1024D0000E945011DF91CF911F910C94DC119F92BB
:1024E000AF92BF92CF92DF92EF92FF920F931F9322
:1024F000CF93DF93CDB7DEB72B970FB6F894DEBF3F
:102500000FBECDBF8C0185E0F801DE01179601906A
:102510000D928A95E1F7D8014C9111965C91119733
:102520001296EC9012978091CE019091CF01009776
:1025300009F46BC12091CB013091CC01632F622350
:102540006F3F09F462C11396CD90DC909090CD015D
:10255000992009F4F8C0C816D90608F43FC0F6015E
:10256000E81BF90BCF01FF24F394883C910508F098
:10257000F12C8BECA82E81E0B82E8091D001982F01
:10258000907FFF2009F4B7C0911180C0FE2C351355
:102590002AC0241328C0E11026C08F708061809368
:1025A000D0010E94FD11C5010E9450118091D001FF
:1025B000D80115968C938F2D2B960FB6F894DEBF0D
:1025C0000FBECDBFDF91CF911F910F91FF90EF9084
:1025D000DF90CF90BF90AF909F9008958095909599
:1025E0008C0D9D1DC0CFCD2829F0842F85238F3FD2
:1025F00009F019C180E0B82FB170DB2EE09199018C
:1026000020919A0136E080FD1CC0EE20A1F280915D
:10261000D00181608093D001F12CCDCF8E2F90E03E
:102620003E9FF0011124E556FE4F6181651306C0FF
:102630006081641303C062816E11E7CFFC013196A3
:10264000E770E213EBCF4F8358878F8198850E9404
:102650005517292F22952F70903260F0225F2F702E
:10266000223078F49F7051F0F8019581907F31F419
:10267000D12C0AC09F7011F08823D1F3805E88307E
:10268000B8F3C8010E945011FD2C95CF351306C038
:10269000241304C0D801EE2009F47BC04F8358876F
:1026A0008F8198850E949211882309F4B8C0EE208A
:1026B00009F4B5C08091D001803270F02091CB0137
:1026C0003091CC013A8329831B82DD82CC828E83B8
:1026D000CE0101960E94501186E0F801ABECB1E00A
:1026E00001900D928A95E1F70E940B120E94FD1154
:1026F000FF24F39460CF911113C07C2DDB86CA8632
:102700006E2D8B850E94BD118BEC91E00E945011C3
:1027100086E0F50111928A95E9F70E94FD114BCFF1
:102720003513BCCF2413BACFE110B8CFD80115961A
:102730008C93C8010E94501186E0F50111928A9590
:10274000E9F7F92C38CFC816D90688F1B601681B0D
:10275000790BCB01F12C883C910508F047C0FE2C89
:10276000EE2009F45CC0351330C024132EC08091D4
:10277000D00180FD21C0982F907FF1F0D8011596EF
:102780008C931597903F39F0982F907F905F8F70C2
:10279000892B15968C93C8010E94501186E0F80190
:1027A000ABECB1E001900D928A95E1F7B6CF809540
:1027B00090958C0D9D1DCECF86E0F801ABECB1E07D
:1027C00001900D928A95E1F7F6CE4F8358878F815D
:1027D00098850E94921181117FCF8091D0018160F4
:1027E0008093D001C8010E945011E5CE7C2DDB867C
:1027F000CA866E2D8B850E94BD1186E0EBECF1E060
:10280000DF011D928A95E9F788CFEE2041F04F83D2
:1028100058878F8198850E94921181115DCFC801E0
:102820000E94501165CF81E08E25E5CE1F93CF9396
:10283000DF93CDB7DEB72C970FB6F894DEBF0FBE8F
:10284000CDBF4F83588769877A878B879C87CE0156
:1028500007960E946F12882369F08A859B85892BD1
:1028600039F04F815885842F85238F3F09F071C03F
:1028700016E05FC086E0FE013796DE0111960190FA
:102880000D928A95E1F78A859B85892B89F3888546
:102890009F8189238F3F61F320919A0130E0C90124
:1028A000019687709927409199014817190671F48C
:1028B0000E948E1110929A011092990186E0EBEC21
:1028C000F1E0DF011D928A95E9F7D2CF96E0929F61
:1028D000D001939FB00D1124A556BE4FFE01319635
:1028E00001900D929A95E1F780939A010E94DC1174
:1028F000BFCF819FC001112485569E4F0E946F1249
:102900008823E9F0E09199011E9FF0011124E5561A
:10291000FE4F4081518162817381848195810E9443
:10292000CC118091990190E001968770992780934E
:1029300099018091990190919A018913DACF2C968F
:102940000FB6F894DEBF0FBECDBFDF91CF911F91C0
:10295000089569857A858B859C850E94CC1188CFE6
:10296000EF92FF920F931F93CF93DF938C01892BEC
:1029700089F0F12CEE24E394E8012196F80184918A
:10298000843709F457C0A0F4823009F43EC048F4FB
:102990008130D1F0DF91CF911F910F91FF90EF9097
:1029A00008959CEF980F9037A8F70E94C80D0AC0B1
:1029B000853709F44CC09CE7980F903758F78F770C
:1029C0000E94A40E8E0116C00E5F1F4FFE0184915F
:1029D00090E2980F983060F48770FE2D01C0FF0FD1
:1029E0008A95EAF78F2F0E945E180E94851802C010
:1029F0000E94C80D8F2D815008F4BECFEFE9FFE093
:102A00003197F1F700C00000F6CF0E5F1F4FFE01B7
:102A1000849190E2980F983050F48770FE2D01C099
:102A2000FF0F8A95EAF78F2F0E946418DECF0E946D
:102A3000A40EE0CF0E5F1F4FFE01C491C150D0F233
:102A40008FE99FE00197F1F700C00000F7CF0E5F1C
:102A50001F4FFE01F490CECF089560931102709342
:102A6000120280931302909314020C947A11CF9364
:102A7000DF9300D000D0CDB7DEB769837A838B8334
:102A80009C838091110290911202A0911302B09147
:102A9000140229813A814B815C81822B932BA42BD8
:102AA000B52B8093110290931202A0931302B0935E
:102AB00014020F900F900F900F90DF91CF910C9414
:102AC0007A11CF93DF9300D000D0CDB7DEB7698302
:102AD0007A838B839C838091110290911202A09142
:102AE0001302B091140229813A814B815C818223C7
:102AF0009323A423B5238093110290931202A093F1
:102B00001302B09314020F900F900F900F90DF916B
:102B1000CF910C947A11CF93DF9300D000D0CDB732
:102B2000DEB769837A838B839C83809111029091B5
:102B30001202A0911302B091140229813A814B81B3
:102B40005C8182279327A427B52780931102909355
:102B50001202A0931302B09314020F900F900F90E3
:102B60000F90DF91CF910C947A1110920D02109278
:102B70000E0210920F02109210020C947A1141E092
:102B800050E060E070E004C0440F551F661F771FDF
:102B90008A95D2F740930D0250930E0260930F0274
:102BA000709310020C947A11282F81E090E0A0E03D
:102BB000B0E004C0880F991FAA1FBB1F2A95D2F747
:102BC00040910D0250910E0260910F02709110021F
:102BD000842B952BA62BB72B80930D0290930E027E
:102BE000A0930F02B09310020C947A1141E050E0D0
:102BF00060E070E004C0440F551F661F771F8A9580
:102C0000D2F7409550956095709580910D02909106
:102C10000E02A0910F02B091100284239523A623E7
:102C2000B72380930D0290930E02A0930F02B093EE
:102C300010020C947A11282F81E090E0A0E0B0E01F
:102C400004C0880F991FAA1FBB1F2A95D2F7409175
:102C50000D0250910E0260910F02709110028427B4
:102C60009527A627B72780930D0290930E02A09375
:102C70000F02B09310020C947A11CF93DF9300D01F
:102C800000D0CDB7DEB769837A838B839C83809134
:102C90000D0290910E02A0910F02B09110022981B5
:102CA0003A814B815C81822B932BA42BB52B809393
:102CB0000D0290930E02A0930F02B09310020F909A
:102CC0000F900F900F90DF91CF910C947A11CF93CA
:102CD000DF9300D000D0CDB7DEB769837A838B83D2
:102CE0009C8380910D0290910E02A0910F02B091F1
:102CF000100229813A814B815C8182239323A42392
:102D0000B52380930D0290930E02A0930F02B0930F
:102D100010020F900F900F900F90DF91CF910C94B5
:102D20007A11CF93DF9300D000D0CDB7DEB769839F
:102D30007A838B839C8380910D0290910E02A091E7
:102D40000F02B091100229813A814B815C81822768
:102D50009327A427B52780930D0290930E02A0938A
:102D60000F02B09310020F900F900F900F90DF9111
:102D7000CF910C947A110895E82F23E1929FE00DF2
:102D800011248E2F877041E001C0440F8A95EAF725
:102D9000E695E695E69585E0E89FF0011124EF526F
:102DA000FE4F30E020E070E05191DF011197CB0140
:102DB000022E02C0969587950A94E2F7817081955C
:102DC0008527842385278C932F5F3F4F253031053E
:102DD00059F70895E82F23E1929FE00D11249E2FCB
:102DE0009770E695E695E69585E0E89FF001112459
:102DF000EF52FE4F50E040E080E0219130E0092E9C
:102E000002C0369527950A94E2F721703327042EE5
:102E100001C0220F0A94EAF7822B4F5F5F4F4530C3
:102E2000510559F70895BF92CF92DF92EF92FF922A
:102E30000F931F93CF93DF938C01C0900D02D0901E
:102E40000E02E0900F02F09010028091110290911A
:102E50001202A0911302B0911402C82AD92AEA2AB8
:102E6000FB2ACFE1D0E0BC2ED701C6010C2E04C056
:102E7000B695A795979587950A94D2F780FD0EC0D1
:102E8000219788F7B12C8B2DDF91CF911F910F9156
:102E9000FF90EF90DF90CF90BF900895B8018C2FF6
:102EA0000E94D208019761F3EECFCF93DF93D82F22
:102EB000C92F0E9413176D2F7C2FDF91CF910C9497
:102EC000D2081F93CF93DF93162FD72F909198019D
:102ED000992339F0862F972FDF91CF911F910C9472
:102EE0005517882391F0862F972F0E941317C82F0C
:102EF000682F812F9D2F0E94BC16612F7D2F8C2F54
:102F0000DF91CF911F910C94D208862F972F0E94AA
:102F1000EA16C82FF2CF8091150285958595859583
:102F20000895809115028770089598E0899F900117
:102F30001124622B609315020C94D4159091150204
:102F40008095892380931502282F277061F4282FFC
:102F5000082E000C330B9217130629F085958595E2
:102F600085950C94F615089590911502977081E05F
:102F700009F480E00895909112019923E1F0909175
:102F80006B0297FF18C0E82FE695E695E695EF31BE
:102F900039F12091000130910101E20FF32FF11D71
:102FA000877021E030E001C0220F8A95EAF7818125
:102FB000822B818308952091000130910101F90154
:102FC00032969FEF40E05191851751F09F3F19F4E1
:102FD000511101C0942F4F5F4E31A9F79F3F09F463
:102FE0000895290F311D97FD3A95F90182830895BF
:102FF00090911201992301F190916B0297FF1CC0EF
:10300000E82FE695E695E695EF3139F1209100013C
:1030100030910101E20FF32FF11D877021E030E0C4
:10302000A90102C0440F551F8A95E2F7CA01809595
:1030300091818923818308952091000130910101BC
:10304000F9013296205E3F4F9191891303C0DF0151
:1030500011971C92E217F307B9F7089581E090E009
:10306000E0910001F0910101E80FF91F1082019633
:1030700080329105A9F7089590913902982B909389
:1030800039020895982F9095809139028923809371
:103090003902089510923902089590913802982BC0
:1030A000909338020895982F909580913802892343
:1030B0008093380208951092380208959091370253
:1030C000982B909337020895982F9095809137020E
:1030D00089238093370208951092370208958093D0
:1030E0001602089510921602089520910001309161
:1030F0000101F9013196205E3F4F80E091919111DD
:103100008F5FE217F307D1F70895E0910001F09186
:103110000101809139028083E0910001F091010169
:10312000808190913802892B8083E0910001F09199
:103130000101808190913702892B80839091160242
:10314000992361F0E0910001F09101018081892BC8
:1031500080830E94751881111092160280910001DF
:10316000909101010C94850C6DEE7EEF90E080E073
:103170000E943B2660E082E090E00E94292660E009
:1031800083E090E00E94292660E084E090E00E94C5
:10319000292660E085E090E00C94292690E080E00C
:1031A0000E9423269C0181E02D3E3E4F09F080E0E5
:1031B000089582E090E00C941B26682F82E090E056
:1031C0000C94292683E090E00C941B26682F83E062
:1031D00090E00C94292684E090E00C941B26682F44
:1031E00084E090E00C94292680917102843039F1BA
:1031F00010923B0288E190E020E40FB6F894A89585
:10320000809360000FBE2093600080E00E94B308AE
:1032100083B7817F846083BF83B7816083BF7894E5
:10322000889583B78E7F83BF0FB6F894A895809159
:103230006000886180936000109260000FBE089566
:1032400008950895CF93DF9300D000D00F92CDB7AB
:10325000DEB70E9420190E94610B0E9421191D8275
:103260008D810E945A0C672B682B692B71F48D811C
:103270008F5F8D838530A1F780E00F900F900F90C6
:103280000F900F90DF91CF91089581E0F6CF0E94CB
:103290008E110E94790C0C94B3081F921FB61F92D6
:1032A00011248F939F93AF93BF9380913B02811121
:1032B00013C08091670290916802A0916902B09159
:1032C0006A024196A11DB11D809367029093680226
:1032D000A0936902B0936A02BF91AF919F918F91C1
:1032E0001F901FBE1F90189582E084BD93E095BD8E
:1032F0009AEF97BD80936E0008952FB7F894809150
:10330000670290916802A0916902B0916A022FBF92
:103310000895CF92DF92EF92FF929C014FB7F894FD
:103320008091670290916802A0916902B0916A024F
:103330004FBF6C017D01EE24FF24A90170E060E025
:10334000C416D506E606F70638F0821B930BFF90ED
:10335000EF90DF90CF9008950197F7CF1F921FB69F
:103360001F9211248F939F93AF93BF938091670215
:1033700090916802A0916902B0916A020196A11D24
:10338000B11D8093670290936802A0936902B09385
:103390006A02BF91AF919F918F911F901FBE1F90A6
:1033A00018950E94C421F8942FEF87EA91E62150E6
:1033B00080409040E1F700C0000087E090EBDC0126
:1033C00080937A0290937B02A0937C02B0937D025B
:1033D00088E19CE00FB6F894A895809360000FBE3A
:1033E00090936000FFCFAF92BF92CF92DF92EF92A7
:1033F000FF920F931F93CF93C0E0A82EB12C8C2F78
:103400000E945A0C6B017C0110E000E0D701C6015C
:10341000002E04C0B695A795979587950A94D2F784
:1034200080FF13C0602F7C2F80E00E94B608A81692
:10343000B90659F481E0CF911F910F91FF90EF9061
:10344000DF90CF90BF90AF9008950F5F1F4F033173
:103450001105E1F6CF5FC53091F680E0ECCFCF9358
:10346000C82F8CE20E94F319882321F08C2FCF9172
:103470000C94F31980E0CF910895CF93DF9300D09F
:1034800000D0CDB7DEB70E94CE18811102C00E94D5
:10349000B41895E6998308C00E94610B8FE39CE9FC
:1034A0000197F1F700C00000A981A150A983A111E3
:1034B000F3CF89E20E942F1A811110C18AE20E9483
:1034C0002F1A81110E94B41885E00E942F1A8111D1
:1034D0000E94D1190E94D91880933A0287E00E9475
:1034E0002F1A882371F08BE10E942F1A882309F488
:1034F000D1C090913A02892F8D7F91FF8260809395
:103500003A0280913A020E94DD180E94EB1890E086
:1035100090936C0280936B0280EE0E942F1A882396
:1035200041F090916B02892F8E7F90FF8160809394
:103530006B0289E30E942F1A882341F090916B025D
:10354000892F8D7F91FF826080936B0282EE0E94B3
:103550002F1A882341F090916B02892F8B7F92FF65
:10356000846080936B0286EE0E942F1A882341F0BC
:1035700090916B02892F877F93FF886080936B0205
:1035800083EE0E942F1A882341F090916B02892FBD
:103590008F7E94FF806180936B0285E30E942F1AD7
:1035A000882341F090916B02892F8F7D95FF806277
:1035B00080936B0281E30E942F1A882341F090913F
:1035C0006B02892F8F7B96FF806480936B0281E171
:1035D0000E942F1A882341F090916B02892F97FB4C
:1035E00087F9805880936B0280916B020E94EF18DC
:1035F00087E20E942F1A89838EE10E942F1A882366
:1036000019F0B981B260B9838FE10E942F1A882323
:1036100019F029812460298380E20E942F1A8823CF
:1036200019F039813860398381E20E942F1A88238A
:1036300019F049814061498382E20E942F1A882350
:1036400019F059815062598383E20E942F1A88230E
:1036500019F089818064898384E20E942F1A88236B
:10366000B1F199819068998389810E94E618398126
:10367000232F30E050E040E029833A834B835C8382
:10368000CA01B9010F900F900F900F90DF91CF9169
:103690000C942D158EE00E942F1A882339F09091FA
:1036A0003A02892F8B7F92FF846029CF80E10E94AC
:1036B0002F1A90913A02882329F0892F877F93FF50
:1036C00088601DCF892F8E7F90FF816018CFA981E0
:1036D000A111CACF0E94E218282FCBCF0F900F90D4
:1036E0000F900F90DF91CF91089580913E0280FF5F
:1036F00012C06091050185E0689FB00111247595A5
:1037000067957595679560387105A8F56115710520
:10371000A1F1862F089581FF09C06091050185E020
:10372000689FB001112475956795EDCF60910501F3
:1037300082FD0AC080913F028823D1F0909104015C
:1037400060910501891728F085E0689FB001112478
:10375000DACF869FB001112485E0869F9001879F74
:10376000300D1124692F70E0C9010E94ED25CBCFE7
:1037700065E070E0CECF8FE7089581E008958091F5
:103780003E0280FF0CC06091030170E07595679563
:10379000759567956115710549F1862F089581FF2B
:1037A00006C06091030170E075956795F3CF609155
:1037B000030182FD0BC090913F029923A1F060911B
:1037C000020180910301961738F0682F70E060388D
:1037D000710500F38FE70895899FC001112470E0FF
:1037E0000E94ED25F4CF61E070E0D7CF81E008952D
:1037F000803F31F40E94751B8195809342020895A9
:10380000813F19F40E94751BF8CF823F31F40E946A
:10381000751B8195809341020895833F19F40E949E
:10382000751BF8CF893F29F40E94BF1B8093430288
:1038300008958A3F21F40E94BF1B8195F7CF8B3FEB
:1038400031F40E94BF1B81958093440208958C3F00
:1038500019F40E94BF1BF8CF843F31F480914002DD
:103860008160809340020895853F21F48091400259
:103870008260F7CF863F21F4809140028460F1CFCF
:10388000873F21F4809140028860EBCF883F21F48C
:10389000809140028061E5CF8D3F31F480913E02FE
:1038A000816080933E0208958E3F21F480913E0214
:1038B0008260F7CF8F3FB9F780913E028460F1CFED
:1038C00090914102803F41F48091420287FD109225
:1038D0004202992371F00895813F29F480914202B8
:1038E0001816ACF3F6CF823F81F497FFF2CF109217
:1038F00041028091420290914302892B90914402AF
:10390000892B49F710923F020895833F19F4191645
:1039100074F3DFCF893F39F4809143021816CCF657
:1039200010924302D6CF8A3F29F48091430287FF49
:10393000D0CFF6CF8B3F39F48091440287FFC9CFB7
:1039400010924402C6CF8C3F29F48091440218168D
:10395000BCF3BFCF843F31F4809140028E7F8093CF
:103960004002B7CF853F21F4809140028D7FF7CF91
:10397000863F21F4809140028B7FF1CF873F21F475
:1039800080914002877FEBCF883F21F480914002F5
:103990008F7EE5CF8D3F31F480913E028E7F809304
:1039A0003E0297CF8E3F21F480913E028D7FF7CF6C
:1039B0008F3F09F08ECF80913E028B7FF0CF80E465
:1039C00092E00E94900C0E947D1990933D0280939A
:1039D0003C0208951F93CF93DF9300D000D000D016
:1039E000CDB7DEB780913C0290913D020E948919CB
:1039F000AC0180913F022091060130E0811106C0A8
:103A0000209107019AE0299F900111244217530742
:103A100088F020914102A0914202A98310914302B3
:103A2000B0914402BE8321110FC09A2F912B9B2B82
:103A300009F0B2C026960FB6F894DEBF0FBECDBF18
:103A4000DF91CF911F9108958F3F19F08F5F809381
:103A50003F02121624F40E94751B8093410280914C
:103A6000410287FF05C00E94751B8195809341022A
:103A70002981121624F40E94751B809342028091C2
:103A8000420287FF05C00E94751B81958093420208
:103A900080914102882309F455C0309142023D8350
:103AA000332309F44FC0282F880F330B440B550BD9
:103AB00029833A834B835C83CA01B9010E94F424B1
:103AC00023E333E343E35FE369837A838B839C835C
:103AD00069817A818B819C810E94582569837A83D0
:103AE0008B839C8369817A818B819C810E94BC2419
:103AF000609341028D81082E000C990BAA0BBB0B21
:103B000089839A83AB83BC83BC01CD010E94F424DA
:103B100023E333E343E35FE369837A838B839C830B
:103B200069817A818B819C810E94582569837A837F
:103B30008B839C8369817A818B819C810E94BC24C8
:103B400060934202111624F40E94BF1B809343022B
:103B50008091430287FF05C00E94BF1B819580931F
:103B600043029E81191624F40E94BF1B80934402D5
:103B70008091440287FF05C00E94BF1B81958093FE
:103B8000440226960FB6F894DEBF0FBECDBFDF917C
:103B9000CF911F910C94DF1C8F3F09F057CF68CF56
:103BA00085E0E0E4F2E0DF011D928A95E9F71092EA
:103BB0003F0210923E020895809165020895CF93CE
:103BC000DF9300D00F92CDB7DEB720917102243081
:103BD00019F523E029838A839B832093E9008FEFE3
:103BE0009091E800815095FD06C095ED9A95F1F70A
:103BF00000008111F5CF8091E80085FF0DC050E0F5
:103C000040E063E070E0CE0101960E943C2080918C
:103C1000E8008E778093E8000F900F900F90DF916F
:103C2000CF910895CF93DF9300D00F92CDB7DEB739
:103C30009C0180917102843031F582E089832058A3
:103C400031093B832A8383E08093E9008FEF9091D1
:103C5000E800815095FD06C095ED9A95F1F70000BA
:103C60008111F5CF8091E80085FF0DC050E040E064
:103C700063E070E0CE0101960E943C208091E80054
:103C80008E778093E8000F900F900F90DF91CF9187
:103C90000895209171022430F1F422E02093E9008C
:103CA0002FEF3091E800215035FD06C035ED3A95F3
:103CB000F1F700002111F5CF2091E80025FF0BC09E
:103CC00050E040E065E070E00E943C208091E80018
:103CD0008E778093E8000895CF93DF93D82FC92F74
:103CE000809171028430F1F4909112019923E9F0EE
:103CF00090916B0297FF19C08093E9008FEF90912C
:103D0000E800815095FD06C095E19A95F1F7000015
:103D10008111F5CF8091E80050E040E060E270E072
:103D200085FD1AC0DF91CF91089581E08093E9006D
:103D30008FEF9091E800815095FD06C095ED9A9522
:103D4000F1F700008111F5CF8091E80085FFEACFFF
:103D500050E040E068E070E08D2F9C2F0E943C20F6
:103D60008091E8008E778093E80080E2ED2FFC2FB1
:103D7000A5E4B2E001900D928A95E1F7D3CF80914E
:103D80007002811109C00E94C4210E9421228091E9
:103D9000E20084608093E20008951092700208951A
:103DA000089508950C94471942E061EC81E00E9467
:103DB000402142E061EC82E00E94402142E061EC5F
:103DC00083E00E94402142E261EC84E00C944021B7
:103DD00080917302893089F148F4823009F494C0EB
:103DE000833009F44FC0813041F008958A3009F4DE
:103DF0007BC08B3009F461C0089580917202813AD2
:103E000009F03FC08091E800877F8093E8008091AF
:103E1000760290917702892B61F460E285E492E06A
:103E200070E00E948B208091E8008B778093E800FF
:103E3000089560E090E080E0F3CF809172028132DB
:103E400001F58091760290917702009711F0039727
:103E5000C1F48091E800877F8093E8008091E800BA
:103E600082FF0BC08091F100809365028091E80091
:103E70008B778093E8000C947421809171028111FA
:103E8000EDCF089580917202813AD9F78091760240
:103E900090917702892BA9F78091E800877F809322
:103EA000E8008091E80080FFFCCF809112018093B0
:103EB000F1008091E8008E77DCCF80917202813230
:103EC00001F78091760290917702892BD1F680914B
:103ED000E800877F8093E8000E947421809174023B
:103EE000809312010C948E1180917202813249F6F6
:103EF0008091E800877F8093E8000E947421809180
:103F0000750280936602089580917202813A09F0E9
:103F1000B8CF8091E800877F8093E8008091E80027
:103F200080FFFCCF80916602C2CF84B7877F84BFB9
:103F30000FB6F894A8958091600088618093600026
:103F4000109260000FBE80E88093610010926100C3
:103F50000E94C80C0E94C4210E9421228091E2008C
:103F600084608093E20078940E94A1240E94CA0C8D
:103F700088E091E00E94740C80917102853019F004
:103F80000E94D00CF9CF0E94F41880916F02882310
:103F900099F30E942219882379F30E942620ECCFFE
:103FA0009C01DA01892F992783309105C1F068F4CB
:103FB0008130910509F445C0029761F48DE690E0E7
:103FC0002CEB3CE02D933C93089581329105E1F078
:103FD000829739F190E080E030E020E0F3CFC90132
:103FE0009927213059F08230910559F0E8EBFCE037
:103FF000892B81F7849190E09F01E4CFE0EAFCE017
:10400000F9CFECE8FCE0F6CF643020F7E62FF0E0E3
:10401000EE0FFF1FE95CFE4F2081318189E090E0C7
:10402000D1CF6430B8F670E0FB01EE0FFF1FE15D09
:10403000FE4F20813181655D7E4FFB01808190E0E4
:10404000C1CF82E190E029E23DE0BCCF80E189BDB3
:1040500082E189BD09B400FEFDCF8091D8008F7D3B
:104060008093D8008091E00082608093E00080918E
:10407000E00081FDFCCF0895AF92BF92CF92DF9216
:10408000FF920F931F93CF93DF936C01EB018A0193
:104090000E949321F82E811123C00115110539F0DA
:1040A000F80180819181C81BD90BC80ED91EB12C93
:1040B000A12C2097A9F08091E80085FD22C0809175
:1040C000E8008E778093E80001151105A1F0F80152
:1040D00080819181A80EB91EB182A08285E0F82E60
:1040E0008F2DDF91CF911F910F91FF90DF90CF9097
:1040F000BF90AF9008950E9493218823D1F2F82EAB
:10410000EFCFF60181916F018093F1002197FFEFCE
:10411000AF1ABF0ACECFFC01CB01209178023091BB
:1041200079022617370790F0009729F42091E800CC
:104130002E772093E80040E0009751F4411108C029
:104140008091E80082FF31C080E00895C901F3CF7B
:10415000209171022223A9F12530A9F12091E800D4
:1041600023FD2DC02091E80022FDEACF2091E80038
:1041700020FFE2CF3091F3002091F200009719F078
:104180002830310558F041E02830310509F040E091
:104190002091E8002E772093E800CECF4191409304
:1041A000F10001972F5F3F4FE9CF80917102882383
:1041B00041F0853041F08091E80083FFC1CF81E07C
:1041C000089582E0089583E00895FC01CB012091D9
:1041D0007802309179022617370790F0009729F47A
:1041E0002091E8002E772093E80040E0009751F4FA
:1041F000411108C08091E80082FF32C080E008953C
:10420000C901F3CF209171022223B1F12530B1F120
:104210002091E80023FD2EC02091E80022FDEACF86
:104220002091E80020FFE2CF3091F3002091F200CE
:10423000009719F02830310558F041E02830310559
:1042400009F040E02091E8002E772093E800CECFDF
:1042500044914093F100319601972F5F3F4FE8CF93
:1042600080917102882341F0853041F08091E8000F
:1042700083FFC0CF81E0089582E0089583E0089530
:10428000982F973028F08F708093E90081E008958F
:104290009093E900242F762F50E0981731F0709119
:1042A000EC002091ED005091F00021FD02C09F5FD5
:1042B000E8CF3091EB003E7F3093EB003091ED0082
:1042C0003D7F3093ED003091EB0031603093EB0097
:1042D0007093EC002093ED005093F0002091EE00DD
:1042E00027FDE5CF80E008958091720287FF13C01B
:1042F0008091E80082FF06C08091E8008B77809370
:10430000E80004C0809171028111F2CF089580917C
:1043100071028823D9F38091E80080FFF8CF809163
:10432000E8008E77ECCF2091E4003091E50095E62F
:10433000A9012091EC00822F817020FF06C080919E
:10434000E80080FF06C080E008952091E80022FD8B
:104350001AC080917102882389F0853089F080919C
:10436000EB0085FD0FC02091E4003091E50042177D
:104370005307F9F29150E1F684E0089582E0089540
:1043800083E0089581E008950E9432220E943A223B
:10439000E0EEF0E0808181608083E8EDF0E08081F4
:1043A0008F77808319BCA7EDB0E08C918E7F8C93C2
:1043B00080818F7E80831092700208950F931F93E7
:1043C000CF93DF930E9432220E943A22C8EDD0E0C0
:1043D00088818F77888388818068888388818F7DB2
:1043E000888319BC1092710210926D0210926F02B4
:1043F00010926E0200EE10E0F80180818B7F8083C6
:1044000088818160888342E060E080E00E944021F2
:10441000E1EEF0E080818E7F8083E2EEF0E080814B
:1044200081608083808188608083F80180818E7FB5
:104430008083888180618883DF91CF911F910F9164
:104440000895E8EDF0E080818F7E8083E7EDF0E075
:1044500080818160808384E082BF81E080937002EC
:104460000C94DE21E8EDF0E080818E7F8083109255
:10447000E20008951092DA001092E10008951F9270
:104480000F920FB60F9211242F933F934F935F9388
:104490006F937F938F939F93AF93BF93EF93FF930C
:1044A0008091E10082FF0BC08091E20082FF07C093
:1044B0008091E1008B7F8093E1000E94A024809195
:1044C000DA0080FF19C08091D80080FF15C080916C
:1044D000DA008E7F8093DA008091D90080FF94C04B
:1044E00080E189BD82E189BD09B400FEFDCF81E094
:1044F000809371020E94BF1E8091E10080FF19C06D
:104500008091E20080FF15C08091E2008E7F809351
:10451000E2008091E20080618093E2008091D80007
:1045200080628093D80019BC85E0809371020E945C
:10453000D11E8091E10084FF29C08091E20084FFB8
:1045400025C080E189BD82E189BD09B400FEFDCFAF
:104550008091D8008F7D8093D8008091E1008F7E7C
:104560008093E1008091E2008F7E8093E200809151
:10457000E20081608093E20080916D02882309F45B
:1045800049C084E0809371020E94D21E8091E100B4
:1045900083FF29C08091E20083FF25C08091E10064
:1045A000877F8093E10082E08093710210926D0218
:1045B0008091E1008E7F8093E1008091E2008E7F08
:1045C0008093E2008091E20080618093E20042E00B
:1045D00060E080E00E9440218091F000886080933C
:1045E000F0000E94D01EFF91EF91BF91AF919F917B
:1045F0008F917F916F915F914F913F912F910F908C
:104600000FBE0F901F90189519BC109271020E9456
:10461000CD1E72CF8091E30087FD02C081E0B2CF52
:1046200083E0B0CF1F920F920FB60F9211242F93F9
:104630003F934F935F936F937F938F939F93AF932A
:10464000BF93CF93DF93EF93FF93D091E900DF7097
:104650008091EC00C82FC17080FDC0E81092E90085
:104660008091F000877F8093F00078940E94562319
:104670001092E9008091F00088608093F000CD2BCB
:10468000CF70C093E900FF91EF91DF91CF91BF917F
:10469000AF919F918F917F916F915F914F913F91DA
:1046A0002F910F900FBE0F901F9018951F93CF93CF
:1046B000DF93CDB7DEB7AA970FB6F894DEBF0FBE73
:1046C000CDBF82E792E0FC0101962091F1002083AA
:1046D00022E08A379207B9F70E94E81E8091E8002D
:1046E00083FF16C180917202909173029A3008F094
:1046F0000FC1E92FF0E0EB58F94D0C9401268038FA
:1047000081F0823809F004C1809176028F70809325
:10471000E9008091EB0085FB882780F91092E90081
:1047200006C080916E0290916F029111826090910B
:10473000E800977F9093E8008093F1001092F100D9
:104740008091E8008E77E0C0882309F4CEC08230E3
:1047500009F0DEC0809174028111D1C0809176028F
:104760008F7009F4D5C08093E9002091EB0020FF01
:10477000C6C0933031F48091EB0080628093EB00EF
:10478000BEC09091EB0090619093EB0021E030E08F
:1047900001C0220F8A95EAF72093EA001092EA00FE
:1047A0008091EB008860EACF8111B2C01091740251
:1047B0001F778091E3008078812B8093E3008091C4
:1047C000E800877F8093E8000E9474218091E800D0
:1047D00080FFFCCF8091E30080688093E30082E05B
:1047E000111183E08093710293C08058823008F0E9
:1047F0008FC080917402909175028C3D23E09207E6
:10480000A1F583E08A838AE289834FB7F894DE01B9
:10481000139620E03EE051E2E32FF0E05093570082
:10482000E49120FF03C0E295EF703F5FEF708E2FA1
:1048300090E0EA30C0F0C7968D939D932F5F2431AE
:1048400059F74FBF8091E800877F8093E8006AE2C4
:1048500070E0CE0101960E948B208091E8008B775A
:104860008093E80055C0C096E7CFAE014F5F5F4F21
:10487000609176020E94D01FBC01892B09F448C0C8
:104880008091E800877F8093E80089819A810E9467
:10489000E520E3CF8038E1F58091E800877F8093C1
:1048A000E80080916D028093F1004ACF811130C001
:1048B00090917402923060F58091E800877F809338
:1048C000E80090936D020E94742180916D0288230C
:1048D00011F084E005C08091E30087FDFACF81E00C
:1048E000809371020E94D41E13C0809174028130A3
:1048F00079F481E0933009F080E080936F021092A8
:10490000E9008091E800877F8093E8000E9474218D
:104910008091E80083FF0AC08091E800877F809340
:10492000E8008091EB0080628093EB00AA960FB6BE
:10493000F894DEBF0FBECDBFDF91CF911F910895D8
:104940000895CF93809171028823A1F0C091E9006E
:10495000CF709091EC00892F817090FD80E8C82B7A
:104960001092E9008091E80083FD0E945623CF70E9
:10497000C093E900CF9108950E94C3246894B111B7
:104980000C94522508950E94372588F09F5798F07F
:10499000B92F9927B751B0F0E1F0660F771F881F44
:1049A000991F1AF0BA95C9F714C0B13091F00E945E
:1049B0005125B1E008950C945125672F782F882751
:1049C000B85F39F0B93FCCF3869577956795B39585
:1049D000D9F73EF490958095709561957F4F8F4FF4
:1049E0009F4F0895E89409C097FB3EF490958095F9
:1049F000709561957F4F8F4F9F4F9923A9F0F92FA5
:104A000096E9BB279395F695879577956795B79522
:104A1000F111F8CFFAF4BB0F11F460FF1BC06F5F08
:104A20007F4F8F4F9F4F16C0882311F096E911C01A
:104A3000772321F09EE8872F762F05C0662371F03B
:104A400096E8862F70E060E02AF09A95660F771F4F
:104A5000881FDAF7880F9695879597F9089557FD7F
:104A60009058440F551F59F05F3F71F04795880FDC
:104A700097FB991F61F09F3F79F087950895121673
:104A800013061406551FF2CF4695F1DF08C016161F
:104A900017061806991FF1CF8695710561050894D0
:104AA0000895E894BB2766277727CB0197F90895E7
:104AB0000E946B250C94DC250E94CE2538F00E94C4
:104AC000D52520F0952311F00C94C5250C94CB2509
:104AD00011240C9452250E942F2570F3959FC1F349
:104AE000950F50E0551F629FF001729FBB27F00D9C
:104AF000B11D639FAA27F00DB11DAA1F649F6627F1
:104B0000B00DA11D661F829F2227B00DA11D621F3F
:104B1000739FB00DA11D621F839FA00D611D221FF9
:104B2000749F3327A00D611D231F849F600D211DDD
:104B3000822F762F6A2F11249F5750409AF0F1F060
:104B400088234AF0EE0FFF1FBB1F661F771F881FC9
:104B500091505040A9F79E3F510580F00C94C52517
:104B60000C9452255F3FE4F3983ED4F386957795F5
:104B70006795B795F795E7959F5FC1F7FE2B880F6F
:104B8000911D9695879597F9089597F99F6780E805
:104B900070E060E008959FEF80EC089500240A948F
:104BA0001616170618060906089500240A94121608
:104BB0001306140605060895092E0394000C11F43B
:104BC000882352F0BB0F40F4BF2B11F460FF04C0E8
:104BD0006F5F7F4F8F4F9F4F089597FB072E16F4FF
:104BE000009407D077FD09D00E94072607FC05D066
:104BF0003EF4909581959F4F0895709561957F4FF4
:104C00000895EE0FFF1F0590F491E02D0994AA1B63
:104C1000BB1B51E107C0AA1FBB1FA617B70710F0A7
:104C2000A61BB70B881F991F5A95A9F780959095D9
:104C3000BC01CD010895F999FECF92BD81BDF89ACE
:104C4000992780B50895A8E1B0E042E050E00C94C7
:104C50004326262FF999FECF92BD81BDF89A019780
:104C600000B4021639F01FBA20BD0FB6F894FA9AB4
:104C7000F99A0FBE08950196272F0E942A260C94B8
:104C80002926DC01CB01FC01F999FECF06C0F2BD5B
:104C9000E1BDF89A319600B40D9241505040B8F7FA
:104CA0000895F894FFCF1E082A082E083208360807
:104CB0003A083E08420846084A084E085208560874
:104CC0005A085E08620866086A08390F390F910FA2
:104CD000910FD50FF10F690F690FFC0F690FC41009
:104CE000C4102F11690F690F38117F23A423882462
:0E4CF000A4238824D423F52388244A245624A0
:104CFE0017022808140A321EDC1D6C1E491E121ED5
:104D0E00DF1D013795333236F130F0963435C697C4
:104D1E00669490919392F4F5F6F731404D3639F74B
:104D2E000DAA0D740D3B0DCE0CE70C000D190D00E8
:00000001FF
